{
  "abi": [
    {
      "type": "function",
      "name": "checkpoint",
      "inputs": [],
      "outputs": [
        {
          "name": "blockNumber_",
          "type": "uint256",
          "internalType": "uint256"
        }
      ],
      "stateMutability": "nonpayable"
    },
    {
      "type": "function",
      "name": "load",
      "inputs": [
        {
          "name": "_blockNumber",
          "type": "uint256",
          "internalType": "uint256"
        }
      ],
      "outputs": [
        {
          "name": "blockInfo_",
          "type": "tuple",
          "internalType": "struct BlockOracle.BlockInfo",
          "components": [
            {
              "name": "hash",
              "type": "bytes32",
              "internalType": "Hash"
            },
            {
              "name": "childTimestamp",
              "type": "uint64",
              "internalType": "Timestamp"
            }
          ]
        }
      ],
      "stateMutability": "view"
    },
    {
      "type": "function",
      "name": "version",
      "inputs": [],
      "outputs": [
        {
          "name": "",
          "type": "string",
          "internalType": "string"
        }
      ],
      "stateMutability": "view"
    },
    {
      "type": "event",
      "name": "Checkpoint",
      "inputs": [
        {
          "name": "blockNumber",
          "type": "uint256",
          "indexed": true,
          "internalType": "uint256"
        },
        {
          "name": "blockHash",
          "type": "bytes32",
          "indexed": true,
          "internalType": "Hash"
        },
        {
          "name": "childTimestamp",
          "type": "uint64",
          "indexed": true,
          "internalType": "Timestamp"
        }
      ],
      "anonymous": false
    },
    {
      "type": "error",
      "name": "BlockHashNotPresent",
      "inputs": []
    }
  ],
  "address": "0x042deb7f12Dad67215b7dD433f53B50C1C1bcb85",
  "args": [],
  "bytecode": "0x608060405234801561001057600080fd5b506102e7806100206000396000f3fe608060405234801561001057600080fd5b50600436106100415760003560e01c806354fd4d501461004657806399d548aa14610098578063c2c4c5c1146100d0575b600080fd5b6100826040518060400160405280600581526020017f302e302e3100000000000000000000000000000000000000000000000000000081525081565b60405161008f9190610210565b60405180910390f35b6100ab6100a6366004610283565b6100e6565b604080518251815260209283015167ffffffffffffffff16928101929092520161008f565b6100d8610165565b60405190815260200161008f565b604080518082018252600080825260209182018190528381528082528281208351808501909452805480855260019091015467ffffffffffffffff169284019290925203610160576040517f37cf270500000000000000000000000000000000000000000000000000000000815260040160405180910390fd5b919050565b600061017260014361029c565b60408051808201825282408082524267ffffffffffffffff81811660208086018281526000898152918290528782209651875551600190960180547fffffffffffffffffffffffffffffffffffffffffffffffff000000000000000016969093169590951790915593519495509093909291849186917fb67ff58b33060fd371a35ae2d9f1c3cdaec9b8197969f6efe2594a1ff4ba68c691a4505090565b600060208083528351808285015260005b8181101561023d57858101830151858201604001528201610221565b8181111561024f576000604083870101525b50601f017fffffffffffffffffffffffffffffffffffffffffffffffffffffffffffffffe016929092016040019392505050565b60006020828403121561029557600080fd5b5035919050565b6000828210156102d5577f4e487b7100000000000000000000000000000000000000000000000000000000600052601160045260246000fd5b50039056fea164736f6c634300080f000a",
  "devdoc": {
    "version": 1,
    "kind": "dev",
    "methods": {
      "checkpoint()": {
        "returns": {
          "blockNumber_": "The block number that was checkpointed, which is always                      `block.number - 1`."
        }
      },
      "load(uint256)": {
        "params": {
          "_blockNumber": "The block number to load the block hash and timestamp for."
        },
        "returns": {
          "blockInfo_": "The block hash and timestamp for the given block number."
        }
      }
    },
    "title": "BlockOracle"
  },
  "numDeployments": 12,
  "solcInputHash": "0x0000000000000000000000000000000000000000000000000000000000000000",
  "storageLayout": {
    "storage": [
      {
        "astId": 84189,
        "contract": "src/dispute/BlockOracle.sol:BlockOracle",
        "label": "blocks",
        "offset": 0,
        "slot": "0",
        "type": "t_mapping(t_uint256,t_struct(BlockInfo)84172_storage)"
      }
    ],
    "types": {
      "t_mapping(t_uint256,t_struct(BlockInfo)84172_storage)": {
        "encoding": "mapping",
        "key": "t_uint256",
        "label": "mapping(uint256 => struct BlockOracle.BlockInfo)",
        "numberOfBytes": "32",
        "value": "t_struct(BlockInfo)84172_storage"
      },
      "t_struct(BlockInfo)84172_storage": {
        "encoding": "inplace",
        "label": "struct BlockOracle.BlockInfo",
        "numberOfBytes": "64",
        "members": [
          {
            "astId": 84168,
            "contract": "src/dispute/BlockOracle.sol:BlockOracle",
            "label": "hash",
            "offset": 0,
            "slot": "0",
            "type": "t_userDefinedValueType(Hash)89991"
          },
          {
            "astId": 84171,
            "contract": "src/dispute/BlockOracle.sol:BlockOracle",
            "label": "childTimestamp",
            "offset": 0,
            "slot": "1",
            "type": "t_userDefinedValueType(Timestamp)89999"
          }
        ]
      },
      "t_uint256": {
        "encoding": "inplace",
        "label": "uint256",
        "numberOfBytes": "32"
      },
      "t_userDefinedValueType(Hash)89991": {
        "encoding": "inplace",
        "label": "Hash",
        "numberOfBytes": "32"
      },
      "t_userDefinedValueType(Timestamp)89999": {
        "encoding": "inplace",
        "label": "Timestamp",
        "numberOfBytes": "8"
      }
    }
  },
  "transactionHash": "0x8aea6a70f5aa03ffd7f3f49f81ea5489401839bb66d6425ea29f24098d19d881",
  "userdoc": {
    "version": 1,
    "kind": "user",
    "methods": {
      "checkpoint()": {
        "notice": "Stores a block hash for the previous block number."
      },
      "load(uint256)": {
        "notice": "Loads a block hash for a given block number, assuming that the block number         has been stored in the oracle."
      },
      "version()": {
        "notice": "Semantic version."
      }
    },
    "events": {
      "Checkpoint(uint256,bytes32,uint64)": {
        "notice": "Emitted when a block is checkpointed."
      }
    },
    "errors": {
      "BlockHashNotPresent()": [
        {
          "notice": "Thrown when a block hash is attempted to be loaded that has not been stored."
        }
      ]
    },
    "notice": "Stores a map of block numbers => block hashes for use in dispute resolution"
  }
}