{
  "abi": [
    {
      "type": "constructor",
      "inputs": [],
      "stateMutability": "nonpayable"
    },
    {
      "type": "function",
      "name": "create",
      "inputs": [
        {
          "name": "_gameType",
          "type": "uint8",
          "internalType": "GameType"
        },
        {
          "name": "_rootClaim",
          "type": "bytes32",
          "internalType": "Claim"
        },
        {
          "name": "_extraData",
          "type": "bytes",
          "internalType": "bytes"
        }
      ],
      "outputs": [
        {
          "name": "proxy_",
          "type": "address",
          "internalType": "contract IDisputeGame"
        }
      ],
      "stateMutability": "nonpayable"
    },
    {
      "type": "function",
      "name": "gameAtIndex",
      "inputs": [
        {
          "name": "_index",
          "type": "uint256",
          "internalType": "uint256"
        }
      ],
      "outputs": [
        {
          "name": "gameType_",
          "type": "uint8",
          "internalType": "GameType"
        },
        {
          "name": "timestamp_",
          "type": "uint64",
          "internalType": "Timestamp"
        },
        {
          "name": "proxy_",
          "type": "address",
          "internalType": "contract IDisputeGame"
        }
      ],
      "stateMutability": "view"
    },
    {
      "type": "function",
      "name": "gameCount",
      "inputs": [],
      "outputs": [
        {
          "name": "gameCount_",
          "type": "uint256",
          "internalType": "uint256"
        }
      ],
      "stateMutability": "view"
    },
    {
      "type": "function",
      "name": "gameImpls",
      "inputs": [
        {
          "name": "",
          "type": "uint8",
          "internalType": "GameType"
        }
      ],
      "outputs": [
        {
          "name": "",
          "type": "address",
          "internalType": "contract IDisputeGame"
        }
      ],
      "stateMutability": "view"
    },
    {
      "type": "function",
      "name": "games",
      "inputs": [
        {
          "name": "_gameType",
          "type": "uint8",
          "internalType": "GameType"
        },
        {
          "name": "_rootClaim",
          "type": "bytes32",
          "internalType": "Claim"
        },
        {
          "name": "_extraData",
          "type": "bytes",
          "internalType": "bytes"
        }
      ],
      "outputs": [
        {
          "name": "proxy_",
          "type": "address",
          "internalType": "contract IDisputeGame"
        },
        {
          "name": "timestamp_",
          "type": "uint64",
          "internalType": "Timestamp"
        }
      ],
      "stateMutability": "view"
    },
    {
      "type": "function",
      "name": "getGameUUID",
      "inputs": [
        {
          "name": "_gameType",
          "type": "uint8",
          "internalType": "GameType"
        },
        {
          "name": "_rootClaim",
          "type": "bytes32",
          "internalType": "Claim"
        },
        {
          "name": "_extraData",
          "type": "bytes",
          "internalType": "bytes"
        }
      ],
      "outputs": [
        {
          "name": "uuid_",
          "type": "bytes32",
          "internalType": "Hash"
        }
      ],
      "stateMutability": "pure"
    },
    {
      "type": "function",
      "name": "initialize",
      "inputs": [
        {
          "name": "_owner",
          "type": "address",
          "internalType": "address"
        }
      ],
      "outputs": [],
      "stateMutability": "nonpayable"
    },
    {
      "type": "function",
      "name": "owner",
      "inputs": [],
      "outputs": [
        {
          "name": "",
          "type": "address",
          "internalType": "address"
        }
      ],
      "stateMutability": "view"
    },
    {
      "type": "function",
      "name": "renounceOwnership",
      "inputs": [],
      "outputs": [],
      "stateMutability": "nonpayable"
    },
    {
      "type": "function",
      "name": "setImplementation",
      "inputs": [
        {
          "name": "_gameType",
          "type": "uint8",
          "internalType": "GameType"
        },
        {
          "name": "_impl",
          "type": "address",
          "internalType": "contract IDisputeGame"
        }
      ],
      "outputs": [],
      "stateMutability": "nonpayable"
    },
    {
      "type": "function",
      "name": "transferOwnership",
      "inputs": [
        {
          "name": "newOwner",
          "type": "address",
          "internalType": "address"
        }
      ],
      "outputs": [],
      "stateMutability": "nonpayable"
    },
    {
      "type": "function",
      "name": "version",
      "inputs": [],
      "outputs": [
        {
          "name": "",
          "type": "string",
          "internalType": "string"
        }
      ],
      "stateMutability": "view"
    },
    {
      "type": "event",
      "name": "DisputeGameCreated",
      "inputs": [
        {
          "name": "disputeProxy",
          "type": "address",
          "indexed": true,
          "internalType": "address"
        },
        {
          "name": "gameType",
          "type": "uint8",
          "indexed": true,
          "internalType": "GameType"
        },
        {
          "name": "rootClaim",
          "type": "bytes32",
          "indexed": true,
          "internalType": "Claim"
        }
      ],
      "anonymous": false
    },
    {
      "type": "event",
      "name": "ImplementationSet",
      "inputs": [
        {
          "name": "impl",
          "type": "address",
          "indexed": true,
          "internalType": "address"
        },
        {
          "name": "gameType",
          "type": "uint8",
          "indexed": true,
          "internalType": "GameType"
        }
      ],
      "anonymous": false
    },
    {
      "type": "event",
      "name": "Initialized",
      "inputs": [
        {
          "name": "version",
          "type": "uint8",
          "indexed": false,
          "internalType": "uint8"
        }
      ],
      "anonymous": false
    },
    {
      "type": "event",
      "name": "OwnershipTransferred",
      "inputs": [
        {
          "name": "previousOwner",
          "type": "address",
          "indexed": true,
          "internalType": "address"
        },
        {
          "name": "newOwner",
          "type": "address",
          "indexed": true,
          "internalType": "address"
        }
      ],
      "anonymous": false
    },
    {
      "type": "error",
      "name": "GameAlreadyExists",
      "inputs": [
        {
          "name": "uuid",
          "type": "bytes32",
          "internalType": "Hash"
        }
      ]
    },
    {
      "type": "error",
      "name": "NoImplementation",
      "inputs": [
        {
          "name": "gameType",
          "type": "uint8",
          "internalType": "GameType"
        }
      ]
    }
  ],
  "address": "0x1D76cd1460239F99516F165578b6A80EFb70f3C6",
  "args": [],
  "bytecode": "0x60806040523480156200001157600080fd5b506200001e600062000024565b62000292565b600054610100900460ff1615808015620000455750600054600160ff909116105b8062000075575062000062306200016260201b6200097e1760201c565b15801562000075575060005460ff166001145b620000de5760405162461bcd60e51b815260206004820152602e60248201527f496e697469616c697a61626c653a20636f6e747261637420697320616c72656160448201526d191e481a5b9a5d1a585b1a5e995960921b60648201526084015b60405180910390fd5b6000805460ff19166001179055801562000102576000805461ff0019166101001790555b6200010c62000171565b6200011782620001d9565b80156200015e576000805461ff0019169055604051600181527f7f26b83ff96e1f2b6a682f133852f6798a09c465da95921460cefb38474024989060200160405180910390a15b5050565b6001600160a01b03163b151590565b600054610100900460ff16620001cd5760405162461bcd60e51b815260206004820152602b6024820152600080516020620012d183398151915260448201526a6e697469616c697a696e6760a81b6064820152608401620000d5565b620001d76200022b565b565b603380546001600160a01b038381166001600160a01b0319831681179093556040519116919082907f8be0079c531659141344cd1fd0a4f28419497f9722a3daafe3b4186f6b6457e090600090a35050565b600054610100900460ff16620002875760405162461bcd60e51b815260206004820152602b6024820152600080516020620012d183398151915260448201526a6e697469616c697a696e6760a81b6064820152608401620000d5565b620001d733620001d9565b61102f80620002a26000396000f3fe608060405234801561001057600080fd5b50600436106100d45760003560e01c80638da5cb5b11610081578063c4d66de81161005b578063c4d66de8146102e8578063dfa162d3146102fb578063f2fde38b1461033157600080fd5b80638da5cb5b14610231578063bb8aa1fc1461024f578063c49d5271146102a057600080fd5b80634d1975b4116100b25780634d1975b4146101d857806354fd4d50146101e0578063715018a61461022957600080fd5b806326daafbe146100d95780633142e55e1461018b57806345583b7a146101c3575b600080fd5b6101786100e7366004610d45565b7fffffffffffffffffffffffffffffffffffffffffffffffffffffffffffffffa0810180517fffffffffffffffffffffffffffffffffffffffffffffffffffffffffffffffc0830180517fffffffffffffffffffffffffffffffffffffffffffffffffffffffffffffffe08086018051988652968352606087529451609f0190941683209190925291905291905290565b6040519081526020015b60405180910390f35b61019e610199366004610e2e565b610344565b60405173ffffffffffffffffffffffffffffffffffffffff9091168152602001610182565b6101d66101d1366004610ed7565b6105a6565b005b606754610178565b61021c6040518060400160405280600581526020017f302e302e3600000000000000000000000000000000000000000000000000000081525081565b6040516101829190610f0e565b6101d661062d565b60335473ffffffffffffffffffffffffffffffffffffffff1661019e565b61026261025d366004610f81565b610641565b6040805160ff909416845267ffffffffffffffff909216602084015273ffffffffffffffffffffffffffffffffffffffff1690820152606001610182565b6102b36102ae366004610e2e565b6106a3565b6040805173ffffffffffffffffffffffffffffffffffffffff909316835267ffffffffffffffff909116602083015201610182565b6101d66102f6366004610f9a565b61072b565b61019e610309366004610fbe565b60656020526000908152604090205473ffffffffffffffffffffffffffffffffffffffff1681565b6101d661033f366004610f9a565b6108c7565b60ff841660009081526065602052604081205473ffffffffffffffffffffffffffffffffffffffff16806103ae576040517f44265d6f00000000000000000000000000000000000000000000000000000000815260ff871660048201526024015b60405180910390fd5b6104118585856040516020016103c693929190610fd9565b604080517fffffffffffffffffffffffffffffffffffffffffffffffffffffffffffffffe081840301815291905273ffffffffffffffffffffffffffffffffffffffff83169061099a565b91508173ffffffffffffffffffffffffffffffffffffffff16638129fc1c6040518163ffffffff1660e01b8152600401600060405180830381600087803b15801561045b57600080fd5b505af115801561046f573d6000803e3d6000fd5b5050505060006104b6878787878080601f0160208091040260200160405190810160405280939291908181526020018383808284376000920191909152506100e792505050565b60008181526066602052604090205490915015610502576040517f014f6fe5000000000000000000000000000000000000000000000000000000008152600481018290526024016103a5565b60004260b81b60f889901b178417600083815260666020526040808220839055606780546001810182559083527f9787eeb91fe3101235e4a76063c7023ecb40f923f97916639c598592fa30d6ae0183905551919250889160ff8b169173ffffffffffffffffffffffffffffffffffffffff8816917ffad0599ff449d8d9685eadecca8cb9e00924c5fd8367c1c09469824939e1ffec9190a4505050949350505050565b6105ae610ace565b60ff821660008181526065602052604080822080547fffffffffffffffffffffffff00000000000000000000000000000000000000001673ffffffffffffffffffffffffffffffffffffffff8616908117909155905190917f623713f72f6e427a8044bb8b3bd6834357cf285decbaa21bcc73c1d0632c4d8491a35050565b610635610ace565b61063f6000610b4f565b565b60008060006106966067858154811061065c5761065c610ff3565b906000526020600020015460f881901c9167ffffffffffffffff60b883901c169173ffffffffffffffffffffffffffffffffffffffff1690565b9196909550909350915050565b60008060006106e9878787878080601f0160208091040260200160405190810160405280939291908181526020018383808284376000920191909152506100e792505050565b60009081526066602052604090205473ffffffffffffffffffffffffffffffffffffffff81169860b89190911c67ffffffffffffffff16975095505050505050565b600054610100900460ff161580801561074b5750600054600160ff909116105b806107655750303b158015610765575060005460ff166001145b6107f1576040517f08c379a000000000000000000000000000000000000000000000000000000000815260206004820152602e60248201527f496e697469616c697a61626c653a20636f6e747261637420697320616c72656160448201527f647920696e697469616c697a656400000000000000000000000000000000000060648201526084016103a5565b600080547fffffffffffffffffffffffffffffffffffffffffffffffffffffffffffffff00166001179055801561084f57600080547fffffffffffffffffffffffffffffffffffffffffffffffffffffffffffff00ff166101001790555b610857610bc6565b61086082610b4f565b80156108c357600080547fffffffffffffffffffffffffffffffffffffffffffffffffffffffffffff00ff169055604051600181527f7f26b83ff96e1f2b6a682f133852f6798a09c465da95921460cefb38474024989060200160405180910390a15b5050565b6108cf610ace565b73ffffffffffffffffffffffffffffffffffffffff8116610972576040517f08c379a000000000000000000000000000000000000000000000000000000000815260206004820152602660248201527f4f776e61626c653a206e6577206f776e657220697320746865207a65726f206160448201527f646472657373000000000000000000000000000000000000000000000000000060648201526084016103a5565b61097b81610b4f565b50565b73ffffffffffffffffffffffffffffffffffffffff163b151590565b60006002825101603f8101600a81036040518360581b8260e81b177f6100003d81600a3d39f3363d3d373d3d3d3d610000806035363936013d7300001781528660601b601e8201527f5af43d3d93803e603357fd5bf300000000000000000000000000000000000000603282015285519150603f8101602087015b60208410610a5257805182527fffffffffffffffffffffffffffffffffffffffffffffffffffffffffffffffe09093019260209182019101610a15565b517fffffffffffffffffffffffffffffffffffffffffffffffffffffffffffffffff602085900360031b1b16815260f085901b9083015282816000f0945084610abf577febfef1880000000000000000000000000000000000000000000000000000000060005260206000fd5b90910160405250909392505050565b60335473ffffffffffffffffffffffffffffffffffffffff16331461063f576040517f08c379a000000000000000000000000000000000000000000000000000000000815260206004820181905260248201527f4f776e61626c653a2063616c6c6572206973206e6f7420746865206f776e657260448201526064016103a5565b6033805473ffffffffffffffffffffffffffffffffffffffff8381167fffffffffffffffffffffffff0000000000000000000000000000000000000000831681179093556040519116919082907f8be0079c531659141344cd1fd0a4f28419497f9722a3daafe3b4186f6b6457e090600090a35050565b600054610100900460ff16610c5d576040517f08c379a000000000000000000000000000000000000000000000000000000000815260206004820152602b60248201527f496e697469616c697a61626c653a20636f6e7472616374206973206e6f74206960448201527f6e697469616c697a696e6700000000000000000000000000000000000000000060648201526084016103a5565b61063f600054610100900460ff16610cf7576040517f08c379a000000000000000000000000000000000000000000000000000000000815260206004820152602b60248201527f496e697469616c697a61626c653a20636f6e7472616374206973206e6f74206960448201527f6e697469616c697a696e6700000000000000000000000000000000000000000060648201526084016103a5565b61063f33610b4f565b803560ff81168114610d1157600080fd5b919050565b7f4e487b7100000000000000000000000000000000000000000000000000000000600052604160045260246000fd5b600080600060608486031215610d5a57600080fd5b610d6384610d00565b925060208401359150604084013567ffffffffffffffff80821115610d8757600080fd5b818601915086601f830112610d9b57600080fd5b813581811115610dad57610dad610d16565b604051601f82017fffffffffffffffffffffffffffffffffffffffffffffffffffffffffffffffe0908116603f01168101908382118183101715610df357610df3610d16565b81604052828152896020848701011115610e0c57600080fd5b8260208601602083013760006020848301015280955050505050509250925092565b60008060008060608587031215610e4457600080fd5b610e4d85610d00565b935060208501359250604085013567ffffffffffffffff80821115610e7157600080fd5b818701915087601f830112610e8557600080fd5b813581811115610e9457600080fd5b886020828501011115610ea657600080fd5b95989497505060200194505050565b73ffffffffffffffffffffffffffffffffffffffff8116811461097b57600080fd5b60008060408385031215610eea57600080fd5b610ef383610d00565b91506020830135610f0381610eb5565b809150509250929050565b600060208083528351808285015260005b81811015610f3b57858101830151858201604001528201610f1f565b81811115610f4d576000604083870101525b50601f017fffffffffffffffffffffffffffffffffffffffffffffffffffffffffffffffe016929092016040019392505050565b600060208284031215610f9357600080fd5b5035919050565b600060208284031215610fac57600080fd5b8135610fb781610eb5565b9392505050565b600060208284031215610fd057600080fd5b610fb782610d00565b838152818360208301376000910160200190815292915050565b7f4e487b7100000000000000000000000000000000000000000000000000000000600052603260045260246000fdfea164736f6c634300080f000a496e697469616c697a61626c653a20636f6e7472616374206973206e6f742069",
  "devdoc": {
    "version": 1,
    "kind": "dev",
    "methods": {
      "create(uint8,bytes32,bytes)": {
        "params": {
          "_extraData": "Any extra data that should be provided to the created dispute game.",
          "_gameType": "The type of the DisputeGame - used to decide the proxy implementation.",
          "_rootClaim": "The root claim of the DisputeGame."
        },
        "returns": {
          "proxy_": "The address of the created DisputeGame proxy."
        }
      },
      "gameAtIndex(uint256)": {
        "params": {
          "_index": "The index of the dispute game."
        },
        "returns": {
          "gameType_": "The type of the DisputeGame - used to decide the proxy implementation.",
          "proxy_": "The clone of the `DisputeGame` created with the given parameters.         Returns `address(0)` if nonexistent.",
          "timestamp_": "The timestamp of the creation of the dispute game."
        }
      },
      "gameCount()": {
        "returns": {
          "gameCount_": "The total number of dispute games created by this factory."
        }
      },
      "games(uint8,bytes32,bytes)": {
        "details": "`++` equates to concatenation.",
        "params": {
          "_extraData": "Any extra data that should be provided to the created dispute game.",
          "_gameType": "The type of the DisputeGame - used to decide the proxy implementation",
          "_rootClaim": "The root claim of the DisputeGame."
        },
        "returns": {
          "proxy_": "The clone of the `DisputeGame` created with the given parameters.         Returns `address(0)` if nonexistent.",
          "timestamp_": "The timestamp of the creation of the dispute game."
        }
      },
      "getGameUUID(uint8,bytes32,bytes)": {
        "details": "Hashes the concatenation of `gameType . rootClaim . extraData`      without expanding memory.",
        "params": {
          "_extraData": "Any extra data that should be provided to the created dispute game.",
          "_gameType": "The type of the DisputeGame.",
          "_rootClaim": "The root claim of the DisputeGame."
        },
        "returns": {
          "uuid_": "The unique identifier for the given dispute game parameters."
        }
      },
      "initialize(address)": {
        "params": {
          "_owner": "The owner of the contract."
        }
      },
      "owner()": {
        "details": "Returns the address of the current owner."
      },
      "renounceOwnership()": {
        "details": "Leaves the contract without owner. It will not be possible to call `onlyOwner` functions anymore. Can only be called by the current owner. NOTE: Renouncing ownership will leave the contract without an owner, thereby removing any functionality that is only available to the owner."
      },
      "setImplementation(uint8,address)": {
        "details": "May only be called by the `owner`.",
        "params": {
          "_gameType": "The type of the DisputeGame.",
          "_impl": "The implementation contract for the given `GameType`."
        }
      },
      "transferOwnership(address)": {
        "details": "Transfers ownership of the contract to a new account (`newOwner`). Can only be called by the current owner."
      }
    },
    "errors": {
      "GameAlreadyExists(bytes32)": [
        {
          "params": {
            "uuid": "The UUID of the dispute game that already exists."
          }
        }
      ],
      "NoImplementation(uint8)": [
        {
          "params": {
            "gameType": "The unsupported game type."
          }
        }
      ]
    },
    "title": "DisputeGameFactory"
  },
  "numDeployments": 12,
  "solcInputHash": "0x0000000000000000000000000000000000000000000000000000000000000000",
  "storageLayout": {
    "storage": [
      {
        "astId": 44768,
        "contract": "src/dispute/DisputeGameFactory.sol:DisputeGameFactory",
        "label": "_initialized",
        "offset": 0,
        "slot": "0",
        "type": "t_uint8"
      },
      {
        "astId": 44771,
        "contract": "src/dispute/DisputeGameFactory.sol:DisputeGameFactory",
        "label": "_initializing",
        "offset": 1,
        "slot": "0",
        "type": "t_bool"
      },
      {
        "astId": 46299,
        "contract": "src/dispute/DisputeGameFactory.sol:DisputeGameFactory",
        "label": "__gap",
        "offset": 0,
        "slot": "1",
        "type": "t_array(t_uint256)50_storage"
      },
      {
        "astId": 44640,
        "contract": "src/dispute/DisputeGameFactory.sol:DisputeGameFactory",
        "label": "_owner",
        "offset": 0,
        "slot": "51",
        "type": "t_address"
      },
      {
        "astId": 44760,
        "contract": "src/dispute/DisputeGameFactory.sol:DisputeGameFactory",
        "label": "__gap",
        "offset": 0,
        "slot": "52",
        "type": "t_array(t_uint256)49_storage"
      },
      {
        "astId": 84305,
        "contract": "src/dispute/DisputeGameFactory.sol:DisputeGameFactory",
        "label": "gameImpls",
        "offset": 0,
        "slot": "101",
        "type": "t_mapping(t_userDefinedValueType(GameType)90009,t_contract(IDisputeGame)87463)"
      },
      {
        "astId": 84312,
        "contract": "src/dispute/DisputeGameFactory.sol:DisputeGameFactory",
        "label": "_disputeGames",
        "offset": 0,
        "slot": "102",
        "type": "t_mapping(t_userDefinedValueType(Hash)89991,t_userDefinedValueType(GameId)90003)"
      },
      {
        "astId": 84317,
        "contract": "src/dispute/DisputeGameFactory.sol:DisputeGameFactory",
        "label": "_disputeGameList",
        "offset": 0,
        "slot": "103",
        "type": "t_array(t_userDefinedValueType(GameId)90003)dyn_storage"
      }
    ],
    "types": {
      "t_address": {
        "encoding": "inplace",
        "label": "address",
        "numberOfBytes": "20"
      },
      "t_array(t_uint256)49_storage": {
        "encoding": "inplace",
        "label": "uint256[49]",
        "numberOfBytes": "1568",
        "base": "t_uint256"
      },
      "t_array(t_uint256)50_storage": {
        "encoding": "inplace",
        "label": "uint256[50]",
        "numberOfBytes": "1600",
        "base": "t_uint256"
      },
      "t_array(t_userDefinedValueType(GameId)90003)dyn_storage": {
        "encoding": "dynamic_array",
        "label": "GameId[]",
        "numberOfBytes": "32",
        "base": "t_userDefinedValueType(GameId)90003"
      },
      "t_bool": {
        "encoding": "inplace",
        "label": "bool",
        "numberOfBytes": "1"
      },
      "t_contract(IDisputeGame)87463": {
        "encoding": "inplace",
        "label": "contract IDisputeGame",
        "numberOfBytes": "20"
      },
      "t_mapping(t_userDefinedValueType(GameType)90009,t_contract(IDisputeGame)87463)": {
        "encoding": "mapping",
        "key": "t_userDefinedValueType(GameType)90009",
        "label": "mapping(GameType => contract IDisputeGame)",
        "numberOfBytes": "32",
        "value": "t_contract(IDisputeGame)87463"
      },
      "t_mapping(t_userDefinedValueType(Hash)89991,t_userDefinedValueType(GameId)90003)": {
        "encoding": "mapping",
        "key": "t_userDefinedValueType(Hash)89991",
        "label": "mapping(Hash => GameId)",
        "numberOfBytes": "32",
        "value": "t_userDefinedValueType(GameId)90003"
      },
      "t_uint256": {
        "encoding": "inplace",
        "label": "uint256",
        "numberOfBytes": "32"
      },
      "t_uint8": {
        "encoding": "inplace",
        "label": "uint8",
        "numberOfBytes": "1"
      },
      "t_userDefinedValueType(GameId)90003": {
        "encoding": "inplace",
        "label": "GameId",
        "numberOfBytes": "32"
      },
      "t_userDefinedValueType(GameType)90009": {
        "encoding": "inplace",
        "label": "GameType",
        "numberOfBytes": "1"
      },
      "t_userDefinedValueType(Hash)89991": {
        "encoding": "inplace",
        "label": "Hash",
        "numberOfBytes": "32"
      }
    }
  },
  "transactionHash": "0x399134f1e13add8ff98f22d6a51fe9f7d2aa8fb5a41a7eed0bc9f07cbd15bd6f",
  "userdoc": {
    "version": 1,
    "kind": "user",
    "methods": {
      "constructor": {
        "notice": "constructs a new DisputeGameFactory contract."
      },
      "create(uint8,bytes32,bytes)": {
        "notice": "Creates a new DisputeGame proxy contract."
      },
      "gameAtIndex(uint256)": {
        "notice": "`gameAtIndex` returns the dispute game contract address and its creation timestamp          at the given index. Each created dispute game increments the underlying index."
      },
      "gameCount()": {
        "notice": "The total number of dispute games created by this factory."
      },
      "gameImpls(uint8)": {
        "notice": "`gameImpls` is a mapping that maps `GameType`s to their respective         `IDisputeGame` implementations."
      },
      "games(uint8,bytes32,bytes)": {
        "notice": "`games` queries an internal mapping that maps the hash of         `gameType ++ rootClaim ++ extraData` to the deployed `DisputeGame` clone."
      },
      "getGameUUID(uint8,bytes32,bytes)": {
        "notice": "Returns a unique identifier for the given dispute game parameters."
      },
      "initialize(address)": {
        "notice": "Initializes the contract."
      },
      "setImplementation(uint8,address)": {
        "notice": "Sets the implementation contract for a specific `GameType`."
      },
      "version()": {
        "notice": "Semantic version."
      }
    },
    "events": {
      "DisputeGameCreated(address,uint8,bytes32)": {
        "notice": "Emitted when a new dispute game is created"
      },
      "ImplementationSet(address,uint8)": {
        "notice": "Emitted when a new game implementation added to the factory"
      }
    },
    "errors": {
      "GameAlreadyExists(bytes32)": [
        {
          "notice": "Thrown when a dispute game that already exists is attempted to be created."
        }
      ],
      "NoImplementation(uint8)": [
        {
          "notice": "Thrown when a dispute game is attempted to be created with an unsupported game type."
        }
      ]
    },
    "notice": "A factory contract for creating `IDisputeGame` contracts. All created dispute games         are stored in both a mapping and an append only array. The timestamp of the creation         time of the dispute game is packed tightly into the storage slot with the address of         the dispute game. This is to make offchain discoverability of playable dispute games         easier."
  }
}