{
  "abi": [
    {
      "type": "function",
      "name": "loadKeccak256PreimagePart",
      "inputs": [
        {
          "name": "_partOffset",
          "type": "uint256",
          "internalType": "uint256"
        },
        {
          "name": "_preimage",
          "type": "bytes",
          "internalType": "bytes"
        }
      ],
      "outputs": [],
      "stateMutability": "nonpayable"
    },
    {
      "type": "function",
      "name": "loadLocalData",
      "inputs": [
        {
          "name": "_ident",
          "type": "uint256",
          "internalType": "uint256"
        },
        {
          "name": "_localContext",
          "type": "bytes32",
          "internalType": "bytes32"
        },
        {
          "name": "_word",
          "type": "bytes32",
          "internalType": "bytes32"
        },
        {
          "name": "_size",
          "type": "uint256",
          "internalType": "uint256"
        },
        {
          "name": "_partOffset",
          "type": "uint256",
          "internalType": "uint256"
        }
      ],
      "outputs": [
        {
          "name": "key_",
          "type": "bytes32",
          "internalType": "bytes32"
        }
      ],
      "stateMutability": "nonpayable"
    },
    {
      "type": "function",
      "name": "preimageLengths",
      "inputs": [
        {
          "name": "",
          "type": "bytes32",
          "internalType": "bytes32"
        }
      ],
      "outputs": [
        {
          "name": "",
          "type": "uint256",
          "internalType": "uint256"
        }
      ],
      "stateMutability": "view"
    },
    {
      "type": "function",
      "name": "preimagePartOk",
      "inputs": [
        {
          "name": "",
          "type": "bytes32",
          "internalType": "bytes32"
        },
        {
          "name": "",
          "type": "uint256",
          "internalType": "uint256"
        }
      ],
      "outputs": [
        {
          "name": "",
          "type": "bool",
          "internalType": "bool"
        }
      ],
      "stateMutability": "view"
    },
    {
      "type": "function",
      "name": "preimageParts",
      "inputs": [
        {
          "name": "",
          "type": "bytes32",
          "internalType": "bytes32"
        },
        {
          "name": "",
          "type": "uint256",
          "internalType": "uint256"
        }
      ],
      "outputs": [
        {
          "name": "",
          "type": "bytes32",
          "internalType": "bytes32"
        }
      ],
      "stateMutability": "view"
    },
    {
      "type": "function",
      "name": "readPreimage",
      "inputs": [
        {
          "name": "_key",
          "type": "bytes32",
          "internalType": "bytes32"
        },
        {
          "name": "_offset",
          "type": "uint256",
          "internalType": "uint256"
        }
      ],
      "outputs": [
        {
          "name": "dat_",
          "type": "bytes32",
          "internalType": "bytes32"
        },
        {
          "name": "datLen_",
          "type": "uint256",
          "internalType": "uint256"
        }
      ],
      "stateMutability": "view"
    },
    {
      "type": "error",
      "name": "PartOffsetOOB",
      "inputs": []
    }
  ],
  "address": "0xb018cA14112C15D21d0FB22568fe4475A58EDFc0",
  "args": [],
  "bytecode": "0x608060405234801561001057600080fd5b5061063c806100206000396000f3fe608060405234801561001057600080fd5b50600436106100725760003560e01c8063e03110e111610050578063e03110e114610106578063e15926111461012e578063fef2b4ed1461014357600080fd5b806352f0f3ad1461007757806361238bde1461009d5780638542cf50146100c8575b600080fd5b61008a6100853660046104df565b610163565b6040519081526020015b60405180910390f35b61008a6100ab36600461051a565b600160209081526000928352604080842090915290825290205481565b6100f66100d636600461051a565b600260209081526000928352604080842090915290825290205460ff1681565b6040519015158152602001610094565b61011961011436600461051a565b610238565b60408051928352602083019190915201610094565b61014161013c36600461053c565b610329565b005b61008a6101513660046105b8565b60006020819052908152604090205481565b600061016f8686610432565b905061017c836008610600565b8211806101895750602083115b156101c0576040517ffe25498700000000000000000000000000000000000000000000000000000000815260040160405180910390fd5b6000602081815260c085901b82526008959095528251828252600286526040808320858452875280832080547fffffffffffffffffffffffffffffffffffffffffffffffffffffffffffffff001660019081179091558484528752808320948352938652838220558181529384905292205592915050565b6000828152600260209081526040808320848452909152812054819060ff166102c1576040517f08c379a000000000000000000000000000000000000000000000000000000000815260206004820152601460248201527f7072652d696d616765206d757374206578697374000000000000000000000000604482015260640160405180910390fd5b50600083815260208181526040909120546102dd816008610600565b6102e8856020610600565b1061030657836102f9826008610600565b6103039190610618565b91505b506000938452600160209081526040808620948652939052919092205492909150565b604435600080600883018611156103485763fe2549876000526004601cfd5b60c083901b6080526088838682378087017ffffffffffffffffffffffffffffffffffffffffffffffffffffffffffffffff80151908490207effffffffffffffffffffffffffffffffffffffffffffffffffffffffffffff167f02000000000000000000000000000000000000000000000000000000000000001760008181526002602090815260408083208b8452825280832080547fffffffffffffffffffffffffffffffffffffffffffffffffffffffffffffff0016600190811790915584845282528083209a83529981528982209390935590815290819052959095209190915550505050565b7f01000000000000000000000000000000000000000000000000000000000000007effffffffffffffffffffffffffffffffffffffffffffffffffffffffffffff8316176104d8818360408051600093845233602052918152606090922091527effffffffffffffffffffffffffffffffffffffffffffffffffffffffffffff167f01000000000000000000000000000000000000000000000000000000000000001790565b9392505050565b600080600080600060a086880312156104f757600080fd5b505083359560208501359550604085013594606081013594506080013592509050565b6000806040838503121561052d57600080fd5b50508035926020909101359150565b60008060006040848603121561055157600080fd5b83359250602084013567ffffffffffffffff8082111561057057600080fd5b818601915086601f83011261058457600080fd5b81358181111561059357600080fd5b8760208285010111156105a557600080fd5b6020830194508093505050509250925092565b6000602082840312156105ca57600080fd5b5035919050565b7f4e487b7100000000000000000000000000000000000000000000000000000000600052601160045260246000fd5b60008219821115610613576106136105d1565b500190565b60008282101561062a5761062a6105d1565b50039056fea164736f6c634300080f000a",
  "devdoc": {
    "version": 1,
    "kind": "dev",
    "methods": {
      "loadKeccak256PreimagePart(uint256,bytes)": {
        "params": {
          "_partOffset": "The offset of the preimage to read.",
          "_preimage": "The preimage data."
        }
      },
      "loadLocalData(uint256,bytes32,bytes32,uint256,uint256)": {
        "details": "The local data parts are loaded into the preimage oracle under the context      of the caller - no other account can write to the caller's context      specific data.      There are 5 local data identifiers:      ┌────────────┬────────────────────────┐      │ Identifier │      Data              │      ├────────────┼────────────────────────┤      │          1 │ L1 Head Hash (bytes32) │      │          2 │ Output Root (bytes32)  │      │          3 │ Root Claim (bytes32)   │      │          4 │ L2 Block Number (u64)  │      │          5 │ Chain ID (u64)         │      └────────────┴────────────────────────┘",
        "params": {
          "_ident": "The identifier of the local data.",
          "_localContext": "The local key context for the preimage oracle. Optionally, can be set as a constant                      if the caller only requires one set of local keys.",
          "_partOffset": "The offset of the local data part to write to the oracle.",
          "_size": "The number of bytes in `_word` to load.",
          "_word": "The local data word."
        }
      },
      "readPreimage(bytes32,uint256)": {
        "params": {
          "_key": "The key of the preimage to read.",
          "_offset": "The offset of the preimage to read."
        },
        "returns": {
          "datLen_": "The length of the preimage data.",
          "dat_": "The preimage data."
        }
      }
    },
    "title": "PreimageOracle"
  },
  "numDeployments": 12,
  "solcInputHash": "0x0000000000000000000000000000000000000000000000000000000000000000",
  "storageLayout": {
    "storage": [
      {
        "astId": 83933,
        "contract": "src/cannon/PreimageOracle.sol:PreimageOracle",
        "label": "preimageLengths",
        "offset": 0,
        "slot": "0",
        "type": "t_mapping(t_bytes32,t_uint256)"
      },
      {
        "astId": 83940,
        "contract": "src/cannon/PreimageOracle.sol:PreimageOracle",
        "label": "preimageParts",
        "offset": 0,
        "slot": "1",
        "type": "t_mapping(t_bytes32,t_mapping(t_uint256,t_bytes32))"
      },
      {
        "astId": 83947,
        "contract": "src/cannon/PreimageOracle.sol:PreimageOracle",
        "label": "preimagePartOk",
        "offset": 0,
        "slot": "2",
        "type": "t_mapping(t_bytes32,t_mapping(t_uint256,t_bool))"
      }
    ],
    "types": {
      "t_bool": {
        "encoding": "inplace",
        "label": "bool",
        "numberOfBytes": "1"
      },
      "t_bytes32": {
        "encoding": "inplace",
        "label": "bytes32",
        "numberOfBytes": "32"
      },
      "t_mapping(t_bytes32,t_mapping(t_uint256,t_bool))": {
        "encoding": "mapping",
        "key": "t_bytes32",
        "label": "mapping(bytes32 => mapping(uint256 => bool))",
        "numberOfBytes": "32",
        "value": "t_mapping(t_uint256,t_bool)"
      },
      "t_mapping(t_bytes32,t_mapping(t_uint256,t_bytes32))": {
        "encoding": "mapping",
        "key": "t_bytes32",
        "label": "mapping(bytes32 => mapping(uint256 => bytes32))",
        "numberOfBytes": "32",
        "value": "t_mapping(t_uint256,t_bytes32)"
      },
      "t_mapping(t_bytes32,t_uint256)": {
        "encoding": "mapping",
        "key": "t_bytes32",
        "label": "mapping(bytes32 => uint256)",
        "numberOfBytes": "32",
        "value": "t_uint256"
      },
      "t_mapping(t_uint256,t_bool)": {
        "encoding": "mapping",
        "key": "t_uint256",
        "label": "mapping(uint256 => bool)",
        "numberOfBytes": "32",
        "value": "t_bool"
      },
      "t_mapping(t_uint256,t_bytes32)": {
        "encoding": "mapping",
        "key": "t_uint256",
        "label": "mapping(uint256 => bytes32)",
        "numberOfBytes": "32",
        "value": "t_bytes32"
      },
      "t_uint256": {
        "encoding": "inplace",
        "label": "uint256",
        "numberOfBytes": "32"
      }
    }
  },
  "transactionHash": "0x70eb9ad9de573d31d0c25ad68d2ad566fdb8f58d1d05e033126310f36ac1583b",
  "userdoc": {
    "version": 1,
    "kind": "user",
    "methods": {
      "loadKeccak256PreimagePart(uint256,bytes)": {
        "notice": "Prepares a preimage to be read by keccak256 key, starting at         the given offset and up to 32 bytes (clipped at preimage length, if out of data)."
      },
      "loadLocalData(uint256,bytes32,bytes32,uint256,uint256)": {
        "notice": "Loads of local data part into the preimage oracle."
      },
      "preimageLengths(bytes32)": {
        "notice": "Mapping of pre-image keys to pre-image lengths."
      },
      "preimagePartOk(bytes32,uint256)": {
        "notice": "Mapping of pre-image keys to pre-image part offsets."
      },
      "preimageParts(bytes32,uint256)": {
        "notice": "Mapping of pre-image keys to pre-image parts."
      },
      "readPreimage(bytes32,uint256)": {
        "notice": "Reads a preimage from the oracle."
      }
    },
    "errors": {
      "PartOffsetOOB()": [
        {
          "notice": "Thrown when a passed part offset is out of bounds."
        }
      ]
    },
    "notice": "A contract for storing permissioned pre-images."
  }
}